:1000000001308A00E02900000830F8000000871164
:10001000A01120088316870000008312AC0D071280
:10002000031C182820162008831687001C2883121A
:10003000201220088316870000008312A0152008D4
:10004000831687008312871D2328F80B06280000DB
:100050008711A01120088316870000008312201644
:10006000200883168700000000008312A0152008D6
:10007000831687008312871D3B28F8010000071AAA
:1000800078148711A01120088316870083120712A5
:100090002012200883168700831208000830AC0065
:1000A0007708AD0020162008831687000000831211
:1000B000A0152008831687008312871D5D28071A64
:1000C0000314071E0310F80D0000A011200883166A
:1000D000870083128711AC0B522820162008831644
:1000E00087000000831207122D0803197C282012B4
:1000F00020088316870083120000A01520088316AD
:1001000087008312871D822800008711A011200814
:10011000831687000000831207122012200883161E
:100120008700831208002C08AD000310AD0C783056
:10013000AD052D0CF700F70C3F30F70577082D07BC
:10014000AE002C080F392E07F80008002B08AC0071
:10015000AD012C08093C0318B2280A30AC0210305B
:10016000AD07B5282C08AD07B628A9282D08F8003A
:100170000800A801201620088316870000008312BB
:10018000A015200883168700000083120712201292
:10019000200883168700000083128711A011200811
:1001A00083168700D0308312AC000420AC010420F9
:1001B000201620088316870000008312A01520084F
:1001C0008316870000008312871DE428071220127F
:1001D000200883168700000083128711A0112008D1
:1001E00083168700D1308312AC000420F7014E2023
:1001F0007808A900AC0093207808A80020122008F5
:100200008316870000008312A0152008831687003C
:100210008312871D092900000D29000020162008DF
:100220008316870000008312A813162900002016E9
:1002300020088316870000008312A015200883166B
:1002400087000000831207122012200883168700FF
:10025000000083128711A011200883168700D03078
:100260008312AC000420AC0104202808AB00A620B7
:100270007808A900AC000420201620088316870007
:1002800000008312A0152008831687000000831247
:10029000871D4829071220122008831687000000B6
:1002A00083128711A011200883168700D030831293
:1002B000AC0004200730AC0004208030AC000420E7
:1002C000201220088316870000008312A015200842
:1002D000831687008312871D6B2900006F29000099
:1002E0002016200883168700000083128A110A1244
:1002F000072A293084008313000803198D2901304F
:10030000F800F701F70B8229F80B81294A30F70032
:10031000F70B88298B29800B7F290800AA133F300F
:10032000A805201620088316870000008312A01558
:10033000200883168700000083120712201220086D
:1003400083168700000083128711A01120088316EE
:100350008700D0308312AC000420AC0104202A08AE
:10036000AB00A6207808AB00AC0004202908AB0045
:10037000A6207808AB00AC0004202808AB00A6201B
:100380007808AB00AC0004208030AC0004202012C0
:1003900020088316870000008312A015200883160A
:1003A00087008312871DD2290000D629000020165D
:1003B000200883168700000083128A110A12A32ADC
:1003C00003081F398300FF30A0001230A1001E3047
:1003D000A2001530A3001E30A40083161F149F1422
:1003E0001F159F1107309C0083138312A501A601DE
:1003F000A70183168501860187018801890183127F
:100400008501F1308600870188018901B9286430AF
:10041000A900792120162008831687000000831286
:10042000A0152008831687000000831207122012EF
:10043000200883168700000083128711A01120086E
:1004400083168700D0308312AC000420AC01042056
:10045000201620088316870000008312A0152008AC
:100460008316870000008312871D342A071220128A
:10047000200883168700000083128711A01120082E
:1004800083168700D1308312AC0004200130F700BE
:100490004E2078087F39A800AC0093207808A70088
:1004A0000130F7004E2078087F39A800AC00932077
:1004B0007808A600F7014E2078083F39A800AC0064
:1004C00093207808A50020122008831687000000DA
:1004D0008312A0152008831687008312871D6E2AB9
:1004E0000000722A000020162008831687000000F2
:1004F0000A308312A9007921061FA62A861FA62A80
:10050000C830A9007921861A972A1030880602304F
:10051000A800FA30A9007921A80B892A043088069E
:100520000230A800FA30A9007921A80B922AC8301D
:10053000A90079210618A62A861AA62A1230A80030
:10054000A901AA018E291430A9007921061BCA2A03
:100550002508113C031CAE2A081108122508113C7D
:100560000318B42A081508162508123C0318BE2AD9
:100570002508153C031CBE2A081508162508153C3D
:100580000318C42A081108122508113C031CCA2AA2
:1005900008110812861B0A2B2508113C0318D62ABD
:1005A00026081D3C031CD62A081108122508113CF8
:1005B0000318E02A26081D3C0318E02A081508162F
:1005C0002508123C0318EA2A2508153C031CEA2AD0
:1005D000081508162508153C031DF42A26081D3C9D
:1005E000031CF42A081508162508143C0318FE2AD3
:1005F00026081D3C0318FE2A081108122508153C80
:100600000318042B081108122508113C031C0A2B9F
:08061000081108120A2A630018
:02400E00711F20
:00000001FF
;PIC16F877A
;CRC=66C8  CREATED="04-Nov-14 12:29"
